21:08:56.162689 IP (tos 0x0, ttl 64, id 27662, offset 0, flags [none], proto TCP (6), length 40, bad cksum 0 (->10c0)!)
    127.0.0.1.59187 > 127.0.0.1.8000: Flags [.], cksum 0xfe1c (incorrect -> 0x5e11), seq 3133653826, ack 3254973524, win 6379, length 0
	0x0000:  4500 0028 6c0e 0000 4006 0000 7f00 0001  E..(l...@.......
	0x0010:  7f00 0001 e733 1f40 bac7 c342 c202 f454  .....3.@...B...T
	0x0020:  5010 18eb fe1c 0000                      P.......
21:08:56.162772 IP (tos 0x0, ttl 64, id 0, offset 0, flags [DF], proto TCP (6), length 52, bad cksum 0 (->3cc2)!)
    127.0.0.1.8000 > 127.0.0.1.59187: Flags [.], cksum 0xfe28 (incorrect -> 0x74ba), seq 1, ack 1, win 6378, options [nop,nop,TS val 1806587066 ecr 205448088], length 0
	0x0000:  4500 0034 0000 4000 4006 0000 7f00 0001  E..4..@.@.......
	0x0010:  7f00 0001 1f40 e733 c202 f454 bac7 c343  .....@.3...T...C
	0x0020:  8010 18ea fe28 0000 0101 080a 6bae 54ba  .....(......k.T.
	0x0030:  0c3e e398                                .>..
21:09:24.801503 IP (tos 0x0, ttl 64, id 0, offset 0, flags [DF], proto TCP (6), length 129, bad cksum 0 (->3c75)!)
    127.0.0.1.8000 > 127.0.0.1.59187: Flags [P.], cksum 0xfe75 (incorrect -> 0xfbd3), seq 1:78, ack 1, win 6378, options [nop,nop,TS val 1806615649 ecr 205448088], length 77
	0x0000:  4500 0081 0000 4000 4006 0000 7f00 0001  E.....@.@.......
	0x0010:  7f00 0001 1f40 e733 c202 f454 bac7 c343  .....@.3...T...C
	0x0020:  8018 18ea fe75 0000 0101 080a 6bae c461  .....u......k..a
	0x0030:  0c3e e398 3835 3238 3536 3035 3632 3932  .>..852856056292
	0x0040:  3639 3933 3237 3839 3937 3233 3931 3736  6993278997239176
	0x0050:  3936 3638 3136 3531 3237 3336 3435 3932  9668165127364592
	0x0060:  3037 3935 3637 3935 3337 3932 3135 3337  0795679537921537
	0x0070:  3939 3936 3535 3038 3531 3831 3930 3935  9996550851819095
	0x0080:  0a                                       .
21:09:24.801564 IP (tos 0x0, ttl 64, id 0, offset 0, flags [DF], proto TCP (6), length 52, bad cksum 0 (->3cc2)!)
    127.0.0.1.59187 > 127.0.0.1.8000: Flags [.], cksum 0xfe28 (incorrect -> 0xa9fd), seq 1, ack 78, win 6378, options [nop,nop,TS val 205536863 ecr 1806615649], length 0
	0x0000:  4500 0034 0000 4000 4006 0000 7f00 0001  E..4..@.@.......
	0x0010:  7f00 0001 e733 1f40 bac7 c343 c202 f4a1  .....3.@...C....
	0x0020:  8010 18ea fe28 0000 0101 080a 0c40 3e5f  .....(.......@>_
	0x0030:  6bae c461                                k..a

